{
	"data": {
		"bytecode": {
			"linkReferences": {},
			"object": "6080604052348015600e575f80fd5b506116c38061001c5f395ff3fe608060405260043610610054575f3560e01c8063107046bd14610058578063155dd5ee1461009a57806336fbad26146100c257806394ba9709146100ec5780639675c00914610114578063f14faf6f14610155575b5f80fd5b348015610063575f80fd5b5061007e60048036038101906100799190610a54565b610171565b6040516100919796959493929190610b57565b60405180910390f35b3480156100a5575f80fd5b506100c060048036038101906100bb9190610a54565b6102e5565b005b3480156100cd575f80fd5b506100d661052b565b6040516100e39190610bd2565b60405180910390f35b3480156100f7575f80fd5b50610112600480360381019061010d9190610d17565b610531565b005b34801561011f575f80fd5b5061013a60048036038101906101359190610a54565b610735565b60405161014c96959493929190610db3565b60405180910390f35b61016f600480360381019061016a9190610a54565b6108c3565b005b5f602052805f5260405f205f91509050805f015f9054906101000a900473ffffffffffffffffffffffffffffffffffffffff16908060010180546101b490610e4d565b80601f01602080910402602001604051908101604052809291908181526020018280546101e090610e4d565b801561022b5780601f106102025761010080835404028352916020019161022b565b820191905f5260205f20905b81548152906001019060200180831161020e57829003601f168201915b50505050509080600201805461024090610e4d565b80601f016020809104026020016040519081016040528092919081815260200182805461026c90610e4d565b80156102b75780601f1061028e576101008083540402835291602001916102b7565b820191905f5260205f20905b81548152906001019060200180831161029a57829003601f168201915b505050505090806003015490806004015490806005015490806006015f9054906101000a900460ff16905087565b805f808281526020019081526020015f205f015f9054906101000a900473ffffffffffffffffffffffffffffffffffffffff1673ffffffffffffffffffffffffffffffffffffffff163373ffffffffffffffffffffffffffffffffffffffff1614610385576040517f08c379a000000000000000000000000000000000000000000000000000000000815260040161037c90610eed565b60405180910390fd5b815f808281526020019081526020015f206006015f9054906101000a900460ff166103e5576040517f08c379a00000000000000000000000000000000000000000000000000000000081526004016103dc90610f7b565b60405180910390fd5b825f808281526020019081526020015f206005015442101561043c576040517f08c379a000000000000000000000000000000000000000000000000000000000815260040161043390610fe3565b60405180910390fd5b5f805f8681526020019081526020015f2090505f816004015490505f8260040181905550815f015f9054906101000a900473ffffffffffffffffffffffffffffffffffffffff1673ffffffffffffffffffffffffffffffffffffffff166108fc8290811502906040515f60405180830381858888f193505050501580156104c5573d5f803e3d5ffd5b507ff440aec6b52895984d061d622e6edeba6210f7c3e059be920663140c084560d786835f015f9054906101000a900473ffffffffffffffffffffffffffffffffffffffff168360405161051b9392919061105c565b60405180910390a1505050505050565b60015481565b5f8211610573576040517f08c379a000000000000000000000000000000000000000000000000000000000815260040161056a90611101565b60405180910390fd5b5f81116105b5576040517f08c379a00000000000000000000000000000000000000000000000000000000081526004016105ac9061118f565b60405180910390fd5b5f60015f8154809291906105c8906111da565b9190505590506040518060e001604052803373ffffffffffffffffffffffffffffffffffffffff1681526020018681526020018581526020018481526020015f815260200183426106199190611221565b81526020015f15158152505f808381526020019081526020015f205f820151815f015f6101000a81548173ffffffffffffffffffffffffffffffffffffffff021916908373ffffffffffffffffffffffffffffffffffffffff160217905550602082015181600101908161068d91906113e8565b5060408201518160020190816106a391906113e8565b50606082015181600301556080820151816004015560a0820151816005015560c0820151816006015f6101000a81548160ff0219169083151502179055509050507f483013d4a1d5e8ba43089bda8f1a92b959e32d6fc582556f800267dd809e58938133878686426107159190611221565b6040516107269594939291906114d7565b60405180910390a15050505050565b6060805f805f805f805f8981526020019081526020015f2090505f42826005015411610761575f610772565b428260050154610771919061152f565b5b905081600101826002018360030154846004015484866006015f9054906101000a900460ff168580546107a490610e4d565b80601f01602080910402602001604051908101604052809291908181526020018280546107d090610e4d565b801561081b5780601f106107f25761010080835404028352916020019161081b565b820191905f5260205f20905b8154815290600101906020018083116107fe57829003601f168201915b5050505050955084805461082e90610e4d565b80601f016020809104026020016040519081016040528092919081815260200182805461085a90610e4d565b80156108a55780601f1061087c576101008083540402835291602001916108a5565b820191905f5260205f20905b81548152906001019060200180831161088857829003601f168201915b50505050509450975097509750975097509750505091939550919395565b805f808281526020019081526020015f20600501544210610919576040517f08c379a0000000000000000000000000000000000000000000000000000000008152600401610910906115ac565b60405180910390fd5b5f805f8481526020019081526020015f2090505f341161096e576040517f08c379a00000000000000000000000000000000000000000000000000000000081526004016109659061163a565b60405180910390fd5b34816004015f8282546109819190611221565b9250508190555080600301548160040154101580156109ae5750806006015f9054906101000a900460ff16155b156109d0576001816006015f6101000a81548160ff0219169083151502179055505b7fc621153c724e07947c04e5691a6242bc0b1d109d3709c5a587ad2ad00aa0288c833334604051610a0393929190611658565b60405180910390a1505050565b5f604051905090565b5f80fd5b5f80fd5b5f819050919050565b610a3381610a21565b8114610a3d575f80fd5b50565b5f81359050610a4e81610a2a565b92915050565b5f60208284031215610a6957610a68610a19565b5b5f610a7684828501610a40565b91505092915050565b5f73ffffffffffffffffffffffffffffffffffffffff82169050919050565b5f610aa882610a7f565b9050919050565b610ab881610a9e565b82525050565b5f81519050919050565b5f82825260208201905092915050565b8281835e5f83830152505050565b5f601f19601f8301169050919050565b5f610b0082610abe565b610b0a8185610ac8565b9350610b1a818560208601610ad8565b610b2381610ae6565b840191505092915050565b610b3781610a21565b82525050565b5f8115159050919050565b610b5181610b3d565b82525050565b5f60e082019050610b6a5f83018a610aaf565b8181036020830152610b7c8189610af6565b90508181036040830152610b908188610af6565b9050610b9f6060830187610b2e565b610bac6080830186610b2e565b610bb960a0830185610b2e565b610bc660c0830184610b48565b98975050505050505050565b5f602082019050610be55f830184610b2e565b92915050565b5f80fd5b5f80fd5b7f4e487b71000000000000000000000000000000000000000000000000000000005f52604160045260245ffd5b610c2982610ae6565b810181811067ffffffffffffffff82111715610c4857610c47610bf3565b5b80604052505050565b5f610c5a610a10565b9050610c668282610c20565b919050565b5f67ffffffffffffffff821115610c8557610c84610bf3565b5b610c8e82610ae6565b9050602081019050919050565b828183375f83830152505050565b5f610cbb610cb684610c6b565b610c51565b905082815260208101848484011115610cd757610cd6610bef565b5b610ce2848285610c9b565b509392505050565b5f82601f830112610cfe57610cfd610beb565b5b8135610d0e848260208601610ca9565b91505092915050565b5f805f8060808587031215610d2f57610d2e610a19565b5b5f85013567ffffffffffffffff811115610d4c57610d4b610a1d565b5b610d5887828801610cea565b945050602085013567ffffffffffffffff811115610d7957610d78610a1d565b5b610d8587828801610cea565b9350506040610d9687828801610a40565b9250506060610da787828801610a40565b91505092959194509250565b5f60c0820190508181035f830152610dcb8189610af6565b90508181036020830152610ddf8188610af6565b9050610dee6040830187610b2e565b610dfb6060830186610b2e565b610e086080830185610b2e565b610e1560a0830184610b48565b979650505050505050565b7f4e487b71000000000000000000000000000000000000000000000000000000005f52602260045260245ffd5b5f6002820490506001821680610e6457607f821691505b602082108103610e7757610e76610e20565b5b50919050565b7f4f6e6c79207468652070726f6a656374206f776e65722063616e2063616c6c205f8201527f746869732e000000000000000000000000000000000000000000000000000000602082015250565b5f610ed7602583610ac8565b9150610ee282610e7d565b604082019050919050565b5f6020820190508181035f830152610f0481610ecb565b9050919050565b7f46756e64696e6720676f616c20686173206e6f74206265656e207265616368655f8201527f642e000000000000000000000000000000000000000000000000000000000000602082015250565b5f610f65602283610ac8565b9150610f7082610f0b565b604082019050919050565b5f6020820190508181035f830152610f9281610f59565b9050919050565b7f46756e64696e67206973207374696c6c206f70656e2e000000000000000000005f82015250565b5f610fcd601683610ac8565b9150610fd882610f99565b602082019050919050565b5f6020820190508181035f830152610ffa81610fc1565b9050919050565b5f819050919050565b5f61102461101f61101a84610a7f565b611001565b610a7f565b9050919050565b5f6110358261100a565b9050919050565b5f6110468261102b565b9050919050565b6110568161103c565b82525050565b5f60608201905061106f5f830186610b2e565b61107c602083018561104d565b6110896040830184610b2e565b949350505050565b7f46756e64696e6720676f616c206d7573742062652067726561746572207468615f8201527f6e207a65726f2e00000000000000000000000000000000000000000000000000602082015250565b5f6110eb602783610ac8565b91506110f682611091565b604082019050919050565b5f6020820190508181035f830152611118816110df565b9050919050565b7f4475726174696f6e206d7573742062652067726561746572207468616e207a655f8201527f726f2e0000000000000000000000000000000000000000000000000000000000602082015250565b5f611179602383610ac8565b91506111848261111f565b604082019050919050565b5f6020820190508181035f8301526111a68161116d565b9050919050565b7f4e487b71000000000000000000000000000000000000000000000000000000005f52601160045260245ffd5b5f6111e482610a21565b91507fffffffffffffffffffffffffffffffffffffffffffffffffffffffffffffffff8203611216576112156111ad565b5b600182019050919050565b5f61122b82610a21565b915061123683610a21565b925082820190508082111561124e5761124d6111ad565b5b92915050565b5f819050815f5260205f209050919050565b5f6020601f8301049050919050565b5f82821b905092915050565b5f600883026112b07fffffffffffffffffffffffffffffffffffffffffffffffffffffffffffffffff82611275565b6112ba8683611275565b95508019841693508086168417925050509392505050565b5f6112ec6112e76112e284610a21565b611001565b610a21565b9050919050565b5f819050919050565b611305836112d2565b611319611311826112f3565b848454611281565b825550505050565b5f90565b61132d611321565b6113388184846112fc565b505050565b5b8181101561135b576113505f82611325565b60018101905061133e565b5050565b601f8211156113a05761137181611254565b61137a84611266565b81016020851015611389578190505b61139d61139585611266565b83018261133d565b50505b505050565b5f82821c905092915050565b5f6113c05f19846008026113a5565b1980831691505092915050565b5f6113d883836113b1565b9150826002028217905092915050565b6113f182610abe565b67ffffffffffffffff81111561140a57611409610bf3565b5b6114148254610e4d565b61141f82828561135f565b5f60209050601f831160018114611450575f841561143e578287015190505b61144885826113cd565b8655506114af565b601f19841661145e86611254565b5f5b8281101561148557848901518255600182019150602085019450602081019050611460565b868310156114a2578489015161149e601f8916826113b1565b8355505b6001600288020188555050505b505050505050565b5f6114c182610a7f565b9050919050565b6114d1816114b7565b82525050565b5f60a0820190506114ea5f830188610b2e565b6114f760208301876114c8565b81810360408301526115098186610af6565b90506115186060830185610b2e565b6115256080830184610b2e565b9695505050505050565b5f61153982610a21565b915061154483610a21565b925082820390508181111561155c5761155b6111ad565b5b92915050565b7f5468652066756e64696e6720646561646c696e6520686173207061737365642e5f82015250565b5f611596602083610ac8565b91506115a182611562565b602082019050919050565b5f6020820190508181035f8301526115c38161158a565b9050919050565b7f446f6e6174696f6e206d7573742062652067726561746572207468616e207a655f8201527f726f2e0000000000000000000000000000000000000000000000000000000000602082015250565b5f611624602383610ac8565b915061162f826115ca565b604082019050919050565b5f6020820190508181035f83015261165181611618565b9050919050565b5f60608201905061166b5f830186610b2e565b61167860208301856114c8565b6116856040830184610b2e565b94935050505056fea264697066735822122015d87d35fa7b261cc9f694359b27896657a96dbdb9a636e39037d81a365b241c64736f6c634300081a0033",
			"opcodes": "PUSH1 0x80 PUSH1 0x40 MSTORE CALLVALUE DUP1 ISZERO PUSH1 0xE JUMPI PUSH0 DUP1 REVERT JUMPDEST POP PUSH2 0x16C3 DUP1 PUSH2 0x1C PUSH0 CODECOPY PUSH0 RETURN INVALID PUSH1 0x80 PUSH1 0x40 MSTORE PUSH1 0x4 CALLDATASIZE LT PUSH2 0x54 JUMPI PUSH0 CALLDATALOAD PUSH1 0xE0 SHR DUP1 PUSH4 0x107046BD EQ PUSH2 0x58 JUMPI DUP1 PUSH4 0x155DD5EE EQ PUSH2 0x9A JUMPI DUP1 PUSH4 0x36FBAD26 EQ PUSH2 0xC2 JUMPI DUP1 PUSH4 0x94BA9709 EQ PUSH2 0xEC JUMPI DUP1 PUSH4 0x9675C009 EQ PUSH2 0x114 JUMPI DUP1 PUSH4 0xF14FAF6F EQ PUSH2 0x155 JUMPI JUMPDEST PUSH0 DUP1 REVERT JUMPDEST CALLVALUE DUP1 ISZERO PUSH2 0x63 JUMPI PUSH0 DUP1 REVERT JUMPDEST POP PUSH2 0x7E PUSH1 0x4 DUP1 CALLDATASIZE SUB DUP2 ADD SWAP1 PUSH2 0x79 SWAP2 SWAP1 PUSH2 0xA54 JUMP JUMPDEST PUSH2 0x171 JUMP JUMPDEST PUSH1 0x40 MLOAD PUSH2 0x91 SWAP8 SWAP7 SWAP6 SWAP5 SWAP4 SWAP3 SWAP2 SWAP1 PUSH2 0xB57 JUMP JUMPDEST PUSH1 0x40 MLOAD DUP1 SWAP2 SUB SWAP1 RETURN JUMPDEST CALLVALUE DUP1 ISZERO PUSH2 0xA5 JUMPI PUSH0 DUP1 REVERT JUMPDEST POP PUSH2 0xC0 PUSH1 0x4 DUP1 CALLDATASIZE SUB DUP2 ADD SWAP1 PUSH2 0xBB SWAP2 SWAP1 PUSH2 0xA54 JUMP JUMPDEST PUSH2 0x2E5 JUMP JUMPDEST STOP JUMPDEST CALLVALUE DUP1 ISZERO PUSH2 0xCD JUMPI PUSH0 DUP1 REVERT JUMPDEST POP PUSH2 0xD6 PUSH2 0x52B JUMP JUMPDEST PUSH1 0x40 MLOAD PUSH2 0xE3 SWAP2 SWAP1 PUSH2 0xBD2 JUMP JUMPDEST PUSH1 0x40 MLOAD DUP1 SWAP2 SUB SWAP1 RETURN JUMPDEST CALLVALUE DUP1 ISZERO PUSH2 0xF7 JUMPI PUSH0 DUP1 REVERT JUMPDEST POP PUSH2 0x112 PUSH1 0x4 DUP1 CALLDATASIZE SUB DUP2 ADD SWAP1 PUSH2 0x10D SWAP2 SWAP1 PUSH2 0xD17 JUMP JUMPDEST PUSH2 0x531 JUMP JUMPDEST STOP JUMPDEST CALLVALUE DUP1 ISZERO PUSH2 0x11F JUMPI PUSH0 DUP1 REVERT JUMPDEST POP PUSH2 0x13A PUSH1 0x4 DUP1 CALLDATASIZE SUB DUP2 ADD SWAP1 PUSH2 0x135 SWAP2 SWAP1 PUSH2 0xA54 JUMP JUMPDEST PUSH2 0x735 JUMP JUMPDEST PUSH1 0x40 MLOAD PUSH2 0x14C SWAP7 SWAP6 SWAP5 SWAP4 SWAP3 SWAP2 SWAP1 PUSH2 0xDB3 JUMP JUMPDEST PUSH1 0x40 MLOAD DUP1 SWAP2 SUB SWAP1 RETURN JUMPDEST PUSH2 0x16F PUSH1 0x4 DUP1 CALLDATASIZE SUB DUP2 ADD SWAP1 PUSH2 0x16A SWAP2 SWAP1 PUSH2 0xA54 JUMP JUMPDEST PUSH2 0x8C3 JUMP JUMPDEST STOP JUMPDEST PUSH0 PUSH1 0x20 MSTORE DUP1 PUSH0 MSTORE PUSH1 0x40 PUSH0 KECCAK256 PUSH0 SWAP2 POP SWAP1 POP DUP1 PUSH0 ADD PUSH0 SWAP1 SLOAD SWAP1 PUSH2 0x100 EXP SWAP1 DIV PUSH20 0xFFFFFFFFFFFFFFFFFFFFFFFFFFFFFFFFFFFFFFFF AND SWAP1 DUP1 PUSH1 0x1 ADD DUP1 SLOAD PUSH2 0x1B4 SWAP1 PUSH2 0xE4D JUMP JUMPDEST DUP1 PUSH1 0x1F ADD PUSH1 0x20 DUP1 SWAP2 DIV MUL PUSH1 0x20 ADD PUSH1 0x40 MLOAD SWAP1 DUP2 ADD PUSH1 0x40 MSTORE DUP1 SWAP3 SWAP2 SWAP1 DUP2 DUP2 MSTORE PUSH1 0x20 ADD DUP3 DUP1 SLOAD PUSH2 0x1E0 SWAP1 PUSH2 0xE4D JUMP JUMPDEST DUP1 ISZERO PUSH2 0x22B JUMPI DUP1 PUSH1 0x1F LT PUSH2 0x202 JUMPI PUSH2 0x100 DUP1 DUP4 SLOAD DIV MUL DUP4 MSTORE SWAP2 PUSH1 0x20 ADD SWAP2 PUSH2 0x22B JUMP JUMPDEST DUP3 ADD SWAP2 SWAP1 PUSH0 MSTORE PUSH1 0x20 PUSH0 KECCAK256 SWAP1 JUMPDEST DUP2 SLOAD DUP2 MSTORE SWAP1 PUSH1 0x1 ADD SWAP1 PUSH1 0x20 ADD DUP1 DUP4 GT PUSH2 0x20E JUMPI DUP3 SWAP1 SUB PUSH1 0x1F AND DUP3 ADD SWAP2 JUMPDEST POP POP POP POP POP SWAP1 DUP1 PUSH1 0x2 ADD DUP1 SLOAD PUSH2 0x240 SWAP1 PUSH2 0xE4D JUMP JUMPDEST DUP1 PUSH1 0x1F ADD PUSH1 0x20 DUP1 SWAP2 DIV MUL PUSH1 0x20 ADD PUSH1 0x40 MLOAD SWAP1 DUP2 ADD PUSH1 0x40 MSTORE DUP1 SWAP3 SWAP2 SWAP1 DUP2 DUP2 MSTORE PUSH1 0x20 ADD DUP3 DUP1 SLOAD PUSH2 0x26C SWAP1 PUSH2 0xE4D JUMP JUMPDEST DUP1 ISZERO PUSH2 0x2B7 JUMPI DUP1 PUSH1 0x1F LT PUSH2 0x28E JUMPI PUSH2 0x100 DUP1 DUP4 SLOAD DIV MUL DUP4 MSTORE SWAP2 PUSH1 0x20 ADD SWAP2 PUSH2 0x2B7 JUMP JUMPDEST DUP3 ADD SWAP2 SWAP1 PUSH0 MSTORE PUSH1 0x20 PUSH0 KECCAK256 SWAP1 JUMPDEST DUP2 SLOAD DUP2 MSTORE SWAP1 PUSH1 0x1 ADD SWAP1 PUSH1 0x20 ADD DUP1 DUP4 GT PUSH2 0x29A JUMPI DUP3 SWAP1 SUB PUSH1 0x1F AND DUP3 ADD SWAP2 JUMPDEST POP POP POP POP POP SWAP1 DUP1 PUSH1 0x3 ADD SLOAD SWAP1 DUP1 PUSH1 0x4 ADD SLOAD SWAP1 DUP1 PUSH1 0x5 ADD SLOAD SWAP1 DUP1 PUSH1 0x6 ADD PUSH0 SWAP1 SLOAD SWAP1 PUSH2 0x100 EXP SWAP1 DIV PUSH1 0xFF AND SWAP1 POP DUP8 JUMP JUMPDEST DUP1 PUSH0 DUP1 DUP3 DUP2 MSTORE PUSH1 0x20 ADD SWAP1 DUP2 MSTORE PUSH1 0x20 ADD PUSH0 KECCAK256 PUSH0 ADD PUSH0 SWAP1 SLOAD SWAP1 PUSH2 0x100 EXP SWAP1 DIV PUSH20 0xFFFFFFFFFFFFFFFFFFFFFFFFFFFFFFFFFFFFFFFF AND PUSH20 0xFFFFFFFFFFFFFFFFFFFFFFFFFFFFFFFFFFFFFFFF AND CALLER PUSH20 0xFFFFFFFFFFFFFFFFFFFFFFFFFFFFFFFFFFFFFFFF AND EQ PUSH2 0x385 JUMPI PUSH1 0x40 MLOAD PUSH32 0x8C379A000000000000000000000000000000000000000000000000000000000 DUP2 MSTORE PUSH1 0x4 ADD PUSH2 0x37C SWAP1 PUSH2 0xEED JUMP JUMPDEST PUSH1 0x40 MLOAD DUP1 SWAP2 SUB SWAP1 REVERT JUMPDEST DUP2 PUSH0 DUP1 DUP3 DUP2 MSTORE PUSH1 0x20 ADD SWAP1 DUP2 MSTORE PUSH1 0x20 ADD PUSH0 KECCAK256 PUSH1 0x6 ADD PUSH0 SWAP1 SLOAD SWAP1 PUSH2 0x100 EXP SWAP1 DIV PUSH1 0xFF AND PUSH2 0x3E5 JUMPI PUSH1 0x40 MLOAD PUSH32 0x8C379A000000000000000000000000000000000000000000000000000000000 DUP2 MSTORE PUSH1 0x4 ADD PUSH2 0x3DC SWAP1 PUSH2 0xF7B JUMP JUMPDEST PUSH1 0x40 MLOAD DUP1 SWAP2 SUB SWAP1 REVERT JUMPDEST DUP3 PUSH0 DUP1 DUP3 DUP2 MSTORE PUSH1 0x20 ADD SWAP1 DUP2 MSTORE PUSH1 0x20 ADD PUSH0 KECCAK256 PUSH1 0x5 ADD SLOAD TIMESTAMP LT ISZERO PUSH2 0x43C JUMPI PUSH1 0x40 MLOAD PUSH32 0x8C379A000000000000000000000000000000000000000000000000000000000 DUP2 MSTORE PUSH1 0x4 ADD PUSH2 0x433 SWAP1 PUSH2 0xFE3 JUMP JUMPDEST PUSH1 0x40 MLOAD DUP1 SWAP2 SUB SWAP1 REVERT JUMPDEST PUSH0 DUP1 PUSH0 DUP7 DUP2 MSTORE PUSH1 0x20 ADD SWAP1 DUP2 MSTORE PUSH1 0x20 ADD PUSH0 KECCAK256 SWAP1 POP PUSH0 DUP2 PUSH1 0x4 ADD SLOAD SWAP1 POP PUSH0 DUP3 PUSH1 0x4 ADD DUP2 SWAP1 SSTORE POP DUP2 PUSH0 ADD PUSH0 SWAP1 SLOAD SWAP1 PUSH2 0x100 EXP SWAP1 DIV PUSH20 0xFFFFFFFFFFFFFFFFFFFFFFFFFFFFFFFFFFFFFFFF AND PUSH20 0xFFFFFFFFFFFFFFFFFFFFFFFFFFFFFFFFFFFFFFFF AND PUSH2 0x8FC DUP3 SWAP1 DUP2 ISZERO MUL SWAP1 PUSH1 0x40 MLOAD PUSH0 PUSH1 0x40 MLOAD DUP1 DUP4 SUB DUP2 DUP6 DUP9 DUP9 CALL SWAP4 POP POP POP POP ISZERO DUP1 ISZERO PUSH2 0x4C5 JUMPI RETURNDATASIZE PUSH0 DUP1 RETURNDATACOPY RETURNDATASIZE PUSH0 REVERT JUMPDEST POP PUSH32 0xF440AEC6B52895984D061D622E6EDEBA6210F7C3E059BE920663140C084560D7 DUP7 DUP4 PUSH0 ADD PUSH0 SWAP1 SLOAD SWAP1 PUSH2 0x100 EXP SWAP1 DIV PUSH20 0xFFFFFFFFFFFFFFFFFFFFFFFFFFFFFFFFFFFFFFFF AND DUP4 PUSH1 0x40 MLOAD PUSH2 0x51B SWAP4 SWAP3 SWAP2 SWAP1 PUSH2 0x105C JUMP JUMPDEST PUSH1 0x40 MLOAD DUP1 SWAP2 SUB SWAP1 LOG1 POP POP POP POP POP POP JUMP JUMPDEST PUSH1 0x1 SLOAD DUP2 JUMP JUMPDEST PUSH0 DUP3 GT PUSH2 0x573 JUMPI PUSH1 0x40 MLOAD PUSH32 0x8C379A000000000000000000000000000000000000000000000000000000000 DUP2 MSTORE PUSH1 0x4 ADD PUSH2 0x56A SWAP1 PUSH2 0x1101 JUMP JUMPDEST PUSH1 0x40 MLOAD DUP1 SWAP2 SUB SWAP1 REVERT JUMPDEST PUSH0 DUP2 GT PUSH2 0x5B5 JUMPI PUSH1 0x40 MLOAD PUSH32 0x8C379A000000000000000000000000000000000000000000000000000000000 DUP2 MSTORE PUSH1 0x4 ADD PUSH2 0x5AC SWAP1 PUSH2 0x118F JUMP JUMPDEST PUSH1 0x40 MLOAD DUP1 SWAP2 SUB SWAP1 REVERT JUMPDEST PUSH0 PUSH1 0x1 PUSH0 DUP2 SLOAD DUP1 SWAP3 SWAP2 SWAP1 PUSH2 0x5C8 SWAP1 PUSH2 0x11DA JUMP JUMPDEST SWAP2 SWAP1 POP SSTORE SWAP1 POP PUSH1 0x40 MLOAD DUP1 PUSH1 0xE0 ADD PUSH1 0x40 MSTORE DUP1 CALLER PUSH20 0xFFFFFFFFFFFFFFFFFFFFFFFFFFFFFFFFFFFFFFFF AND DUP2 MSTORE PUSH1 0x20 ADD DUP7 DUP2 MSTORE PUSH1 0x20 ADD DUP6 DUP2 MSTORE PUSH1 0x20 ADD DUP5 DUP2 MSTORE PUSH1 0x20 ADD PUSH0 DUP2 MSTORE PUSH1 0x20 ADD DUP4 TIMESTAMP PUSH2 0x619 SWAP2 SWAP1 PUSH2 0x1221 JUMP JUMPDEST DUP2 MSTORE PUSH1 0x20 ADD PUSH0 ISZERO ISZERO DUP2 MSTORE POP PUSH0 DUP1 DUP4 DUP2 MSTORE PUSH1 0x20 ADD SWAP1 DUP2 MSTORE PUSH1 0x20 ADD PUSH0 KECCAK256 PUSH0 DUP3 ADD MLOAD DUP2 PUSH0 ADD PUSH0 PUSH2 0x100 EXP DUP2 SLOAD DUP2 PUSH20 0xFFFFFFFFFFFFFFFFFFFFFFFFFFFFFFFFFFFFFFFF MUL NOT AND SWAP1 DUP4 PUSH20 0xFFFFFFFFFFFFFFFFFFFFFFFFFFFFFFFFFFFFFFFF AND MUL OR SWAP1 SSTORE POP PUSH1 0x20 DUP3 ADD MLOAD DUP2 PUSH1 0x1 ADD SWAP1 DUP2 PUSH2 0x68D SWAP2 SWAP1 PUSH2 0x13E8 JUMP JUMPDEST POP PUSH1 0x40 DUP3 ADD MLOAD DUP2 PUSH1 0x2 ADD SWAP1 DUP2 PUSH2 0x6A3 SWAP2 SWAP1 PUSH2 0x13E8 JUMP JUMPDEST POP PUSH1 0x60 DUP3 ADD MLOAD DUP2 PUSH1 0x3 ADD SSTORE PUSH1 0x80 DUP3 ADD MLOAD DUP2 PUSH1 0x4 ADD SSTORE PUSH1 0xA0 DUP3 ADD MLOAD DUP2 PUSH1 0x5 ADD SSTORE PUSH1 0xC0 DUP3 ADD MLOAD DUP2 PUSH1 0x6 ADD PUSH0 PUSH2 0x100 EXP DUP2 SLOAD DUP2 PUSH1 0xFF MUL NOT AND SWAP1 DUP4 ISZERO ISZERO MUL OR SWAP1 SSTORE POP SWAP1 POP POP PUSH32 0x483013D4A1D5E8BA43089BDA8F1A92B959E32D6FC582556F800267DD809E5893 DUP2 CALLER DUP8 DUP7 DUP7 TIMESTAMP PUSH2 0x715 SWAP2 SWAP1 PUSH2 0x1221 JUMP JUMPDEST PUSH1 0x40 MLOAD PUSH2 0x726 SWAP6 SWAP5 SWAP4 SWAP3 SWAP2 SWAP1 PUSH2 0x14D7 JUMP JUMPDEST PUSH1 0x40 MLOAD DUP1 SWAP2 SUB SWAP1 LOG1 POP POP POP POP POP JUMP JUMPDEST PUSH1 0x60 DUP1 PUSH0 DUP1 PUSH0 DUP1 PUSH0 DUP1 PUSH0 DUP10 DUP2 MSTORE PUSH1 0x20 ADD SWAP1 DUP2 MSTORE PUSH1 0x20 ADD PUSH0 KECCAK256 SWAP1 POP PUSH0 TIMESTAMP DUP3 PUSH1 0x5 ADD SLOAD GT PUSH2 0x761 JUMPI PUSH0 PUSH2 0x772 JUMP JUMPDEST TIMESTAMP DUP3 PUSH1 0x5 ADD SLOAD PUSH2 0x771 SWAP2 SWAP1 PUSH2 0x152F JUMP JUMPDEST JUMPDEST SWAP1 POP DUP2 PUSH1 0x1 ADD DUP3 PUSH1 0x2 ADD DUP4 PUSH1 0x3 ADD SLOAD DUP5 PUSH1 0x4 ADD SLOAD DUP5 DUP7 PUSH1 0x6 ADD PUSH0 SWAP1 SLOAD SWAP1 PUSH2 0x100 EXP SWAP1 DIV PUSH1 0xFF AND DUP6 DUP1 SLOAD PUSH2 0x7A4 SWAP1 PUSH2 0xE4D JUMP JUMPDEST DUP1 PUSH1 0x1F ADD PUSH1 0x20 DUP1 SWAP2 DIV MUL PUSH1 0x20 ADD PUSH1 0x40 MLOAD SWAP1 DUP2 ADD PUSH1 0x40 MSTORE DUP1 SWAP3 SWAP2 SWAP1 DUP2 DUP2 MSTORE PUSH1 0x20 ADD DUP3 DUP1 SLOAD PUSH2 0x7D0 SWAP1 PUSH2 0xE4D JUMP JUMPDEST DUP1 ISZERO PUSH2 0x81B JUMPI DUP1 PUSH1 0x1F LT PUSH2 0x7F2 JUMPI PUSH2 0x100 DUP1 DUP4 SLOAD DIV MUL DUP4 MSTORE SWAP2 PUSH1 0x20 ADD SWAP2 PUSH2 0x81B JUMP JUMPDEST DUP3 ADD SWAP2 SWAP1 PUSH0 MSTORE PUSH1 0x20 PUSH0 KECCAK256 SWAP1 JUMPDEST DUP2 SLOAD DUP2 MSTORE SWAP1 PUSH1 0x1 ADD SWAP1 PUSH1 0x20 ADD DUP1 DUP4 GT PUSH2 0x7FE JUMPI DUP3 SWAP1 SUB PUSH1 0x1F AND DUP3 ADD SWAP2 JUMPDEST POP POP POP POP POP SWAP6 POP DUP5 DUP1 SLOAD PUSH2 0x82E SWAP1 PUSH2 0xE4D JUMP JUMPDEST DUP1 PUSH1 0x1F ADD PUSH1 0x20 DUP1 SWAP2 DIV MUL PUSH1 0x20 ADD PUSH1 0x40 MLOAD SWAP1 DUP2 ADD PUSH1 0x40 MSTORE DUP1 SWAP3 SWAP2 SWAP1 DUP2 DUP2 MSTORE PUSH1 0x20 ADD DUP3 DUP1 SLOAD PUSH2 0x85A SWAP1 PUSH2 0xE4D JUMP JUMPDEST DUP1 ISZERO PUSH2 0x8A5 JUMPI DUP1 PUSH1 0x1F LT PUSH2 0x87C JUMPI PUSH2 0x100 DUP1 DUP4 SLOAD DIV MUL DUP4 MSTORE SWAP2 PUSH1 0x20 ADD SWAP2 PUSH2 0x8A5 JUMP JUMPDEST DUP3 ADD SWAP2 SWAP1 PUSH0 MSTORE PUSH1 0x20 PUSH0 KECCAK256 SWAP1 JUMPDEST DUP2 SLOAD DUP2 MSTORE SWAP1 PUSH1 0x1 ADD SWAP1 PUSH1 0x20 ADD DUP1 DUP4 GT PUSH2 0x888 JUMPI DUP3 SWAP1 SUB PUSH1 0x1F AND DUP3 ADD SWAP2 JUMPDEST POP POP POP POP POP SWAP5 POP SWAP8 POP SWAP8 POP SWAP8 POP SWAP8 POP SWAP8 POP SWAP8 POP POP POP SWAP2 SWAP4 SWAP6 POP SWAP2 SWAP4 SWAP6 JUMP JUMPDEST DUP1 PUSH0 DUP1 DUP3 DUP2 MSTORE PUSH1 0x20 ADD SWAP1 DUP2 MSTORE PUSH1 0x20 ADD PUSH0 KECCAK256 PUSH1 0x5 ADD SLOAD TIMESTAMP LT PUSH2 0x919 JUMPI PUSH1 0x40 MLOAD PUSH32 0x8C379A000000000000000000000000000000000000000000000000000000000 DUP2 MSTORE PUSH1 0x4 ADD PUSH2 0x910 SWAP1 PUSH2 0x15AC JUMP JUMPDEST PUSH1 0x40 MLOAD DUP1 SWAP2 SUB SWAP1 REVERT JUMPDEST PUSH0 DUP1 PUSH0 DUP5 DUP2 MSTORE PUSH1 0x20 ADD SWAP1 DUP2 MSTORE PUSH1 0x20 ADD PUSH0 KECCAK256 SWAP1 POP PUSH0 CALLVALUE GT PUSH2 0x96E JUMPI PUSH1 0x40 MLOAD PUSH32 0x8C379A000000000000000000000000000000000000000000000000000000000 DUP2 MSTORE PUSH1 0x4 ADD PUSH2 0x965 SWAP1 PUSH2 0x163A JUMP JUMPDEST PUSH1 0x40 MLOAD DUP1 SWAP2 SUB SWAP1 REVERT JUMPDEST CALLVALUE DUP2 PUSH1 0x4 ADD PUSH0 DUP3 DUP3 SLOAD PUSH2 0x981 SWAP2 SWAP1 PUSH2 0x1221 JUMP JUMPDEST SWAP3 POP POP DUP2 SWAP1 SSTORE POP DUP1 PUSH1 0x3 ADD SLOAD DUP2 PUSH1 0x4 ADD SLOAD LT ISZERO DUP1 ISZERO PUSH2 0x9AE JUMPI POP DUP1 PUSH1 0x6 ADD PUSH0 SWAP1 SLOAD SWAP1 PUSH2 0x100 EXP SWAP1 DIV PUSH1 0xFF AND ISZERO JUMPDEST ISZERO PUSH2 0x9D0 JUMPI PUSH1 0x1 DUP2 PUSH1 0x6 ADD PUSH0 PUSH2 0x100 EXP DUP2 SLOAD DUP2 PUSH1 0xFF MUL NOT AND SWAP1 DUP4 ISZERO ISZERO MUL OR SWAP1 SSTORE POP JUMPDEST PUSH32 0xC621153C724E07947C04E5691A6242BC0B1D109D3709C5A587AD2AD00AA0288C DUP4 CALLER CALLVALUE PUSH1 0x40 MLOAD PUSH2 0xA03 SWAP4 SWAP3 SWAP2 SWAP1 PUSH2 0x1658 JUMP JUMPDEST PUSH1 0x40 MLOAD DUP1 SWAP2 SUB SWAP1 LOG1 POP POP POP JUMP JUMPDEST PUSH0 PUSH1 0x40 MLOAD SWAP1 POP SWAP1 JUMP JUMPDEST PUSH0 DUP1 REVERT JUMPDEST PUSH0 DUP1 REVERT JUMPDEST PUSH0 DUP2 SWAP1 POP SWAP2 SWAP1 POP JUMP JUMPDEST PUSH2 0xA33 DUP2 PUSH2 0xA21 JUMP JUMPDEST DUP2 EQ PUSH2 0xA3D JUMPI PUSH0 DUP1 REVERT JUMPDEST POP JUMP JUMPDEST PUSH0 DUP2 CALLDATALOAD SWAP1 POP PUSH2 0xA4E DUP2 PUSH2 0xA2A JUMP JUMPDEST SWAP3 SWAP2 POP POP JUMP JUMPDEST PUSH0 PUSH1 0x20 DUP3 DUP5 SUB SLT ISZERO PUSH2 0xA69 JUMPI PUSH2 0xA68 PUSH2 0xA19 JUMP JUMPDEST JUMPDEST PUSH0 PUSH2 0xA76 DUP5 DUP3 DUP6 ADD PUSH2 0xA40 JUMP JUMPDEST SWAP2 POP POP SWAP3 SWAP2 POP POP JUMP JUMPDEST PUSH0 PUSH20 0xFFFFFFFFFFFFFFFFFFFFFFFFFFFFFFFFFFFFFFFF DUP3 AND SWAP1 POP SWAP2 SWAP1 POP JUMP JUMPDEST PUSH0 PUSH2 0xAA8 DUP3 PUSH2 0xA7F JUMP JUMPDEST SWAP1 POP SWAP2 SWAP1 POP JUMP JUMPDEST PUSH2 0xAB8 DUP2 PUSH2 0xA9E JUMP JUMPDEST DUP3 MSTORE POP POP JUMP JUMPDEST PUSH0 DUP2 MLOAD SWAP1 POP SWAP2 SWAP1 POP JUMP JUMPDEST PUSH0 DUP3 DUP3 MSTORE PUSH1 0x20 DUP3 ADD SWAP1 POP SWAP3 SWAP2 POP POP JUMP JUMPDEST DUP3 DUP2 DUP4 MCOPY PUSH0 DUP4 DUP4 ADD MSTORE POP POP POP JUMP JUMPDEST PUSH0 PUSH1 0x1F NOT PUSH1 0x1F DUP4 ADD AND SWAP1 POP SWAP2 SWAP1 POP JUMP JUMPDEST PUSH0 PUSH2 0xB00 DUP3 PUSH2 0xABE JUMP JUMPDEST PUSH2 0xB0A DUP2 DUP6 PUSH2 0xAC8 JUMP JUMPDEST SWAP4 POP PUSH2 0xB1A DUP2 DUP6 PUSH1 0x20 DUP7 ADD PUSH2 0xAD8 JUMP JUMPDEST PUSH2 0xB23 DUP2 PUSH2 0xAE6 JUMP JUMPDEST DUP5 ADD SWAP2 POP POP SWAP3 SWAP2 POP POP JUMP JUMPDEST PUSH2 0xB37 DUP2 PUSH2 0xA21 JUMP JUMPDEST DUP3 MSTORE POP POP JUMP JUMPDEST PUSH0 DUP2 ISZERO ISZERO SWAP1 POP SWAP2 SWAP1 POP JUMP JUMPDEST PUSH2 0xB51 DUP2 PUSH2 0xB3D JUMP JUMPDEST DUP3 MSTORE POP POP JUMP JUMPDEST PUSH0 PUSH1 0xE0 DUP3 ADD SWAP1 POP PUSH2 0xB6A PUSH0 DUP4 ADD DUP11 PUSH2 0xAAF JUMP JUMPDEST DUP2 DUP2 SUB PUSH1 0x20 DUP4 ADD MSTORE PUSH2 0xB7C DUP2 DUP10 PUSH2 0xAF6 JUMP JUMPDEST SWAP1 POP DUP2 DUP2 SUB PUSH1 0x40 DUP4 ADD MSTORE PUSH2 0xB90 DUP2 DUP9 PUSH2 0xAF6 JUMP JUMPDEST SWAP1 POP PUSH2 0xB9F PUSH1 0x60 DUP4 ADD DUP8 PUSH2 0xB2E JUMP JUMPDEST PUSH2 0xBAC PUSH1 0x80 DUP4 ADD DUP7 PUSH2 0xB2E JUMP JUMPDEST PUSH2 0xBB9 PUSH1 0xA0 DUP4 ADD DUP6 PUSH2 0xB2E JUMP JUMPDEST PUSH2 0xBC6 PUSH1 0xC0 DUP4 ADD DUP5 PUSH2 0xB48 JUMP JUMPDEST SWAP9 SWAP8 POP POP POP POP POP POP POP POP JUMP JUMPDEST PUSH0 PUSH1 0x20 DUP3 ADD SWAP1 POP PUSH2 0xBE5 PUSH0 DUP4 ADD DUP5 PUSH2 0xB2E JUMP JUMPDEST SWAP3 SWAP2 POP POP JUMP JUMPDEST PUSH0 DUP1 REVERT JUMPDEST PUSH0 DUP1 REVERT JUMPDEST PUSH32 0x4E487B7100000000000000000000000000000000000000000000000000000000 PUSH0 MSTORE PUSH1 0x41 PUSH1 0x4 MSTORE PUSH1 0x24 PUSH0 REVERT JUMPDEST PUSH2 0xC29 DUP3 PUSH2 0xAE6 JUMP JUMPDEST DUP2 ADD DUP2 DUP2 LT PUSH8 0xFFFFFFFFFFFFFFFF DUP3 GT OR ISZERO PUSH2 0xC48 JUMPI PUSH2 0xC47 PUSH2 0xBF3 JUMP JUMPDEST JUMPDEST DUP1 PUSH1 0x40 MSTORE POP POP POP JUMP JUMPDEST PUSH0 PUSH2 0xC5A PUSH2 0xA10 JUMP JUMPDEST SWAP1 POP PUSH2 0xC66 DUP3 DUP3 PUSH2 0xC20 JUMP JUMPDEST SWAP2 SWAP1 POP JUMP JUMPDEST PUSH0 PUSH8 0xFFFFFFFFFFFFFFFF DUP3 GT ISZERO PUSH2 0xC85 JUMPI PUSH2 0xC84 PUSH2 0xBF3 JUMP JUMPDEST JUMPDEST PUSH2 0xC8E DUP3 PUSH2 0xAE6 JUMP JUMPDEST SWAP1 POP PUSH1 0x20 DUP2 ADD SWAP1 POP SWAP2 SWAP1 POP JUMP JUMPDEST DUP3 DUP2 DUP4 CALLDATACOPY PUSH0 DUP4 DUP4 ADD MSTORE POP POP POP JUMP JUMPDEST PUSH0 PUSH2 0xCBB PUSH2 0xCB6 DUP5 PUSH2 0xC6B JUMP JUMPDEST PUSH2 0xC51 JUMP JUMPDEST SWAP1 POP DUP3 DUP2 MSTORE PUSH1 0x20 DUP2 ADD DUP5 DUP5 DUP5 ADD GT ISZERO PUSH2 0xCD7 JUMPI PUSH2 0xCD6 PUSH2 0xBEF JUMP JUMPDEST JUMPDEST PUSH2 0xCE2 DUP5 DUP3 DUP6 PUSH2 0xC9B JUMP JUMPDEST POP SWAP4 SWAP3 POP POP POP JUMP JUMPDEST PUSH0 DUP3 PUSH1 0x1F DUP4 ADD SLT PUSH2 0xCFE JUMPI PUSH2 0xCFD PUSH2 0xBEB JUMP JUMPDEST JUMPDEST DUP2 CALLDATALOAD PUSH2 0xD0E DUP5 DUP3 PUSH1 0x20 DUP7 ADD PUSH2 0xCA9 JUMP JUMPDEST SWAP2 POP POP SWAP3 SWAP2 POP POP JUMP JUMPDEST PUSH0 DUP1 PUSH0 DUP1 PUSH1 0x80 DUP6 DUP8 SUB SLT ISZERO PUSH2 0xD2F JUMPI PUSH2 0xD2E PUSH2 0xA19 JUMP JUMPDEST JUMPDEST PUSH0 DUP6 ADD CALLDATALOAD PUSH8 0xFFFFFFFFFFFFFFFF DUP2 GT ISZERO PUSH2 0xD4C JUMPI PUSH2 0xD4B PUSH2 0xA1D JUMP JUMPDEST JUMPDEST PUSH2 0xD58 DUP8 DUP3 DUP9 ADD PUSH2 0xCEA JUMP JUMPDEST SWAP5 POP POP PUSH1 0x20 DUP6 ADD CALLDATALOAD PUSH8 0xFFFFFFFFFFFFFFFF DUP2 GT ISZERO PUSH2 0xD79 JUMPI PUSH2 0xD78 PUSH2 0xA1D JUMP JUMPDEST JUMPDEST PUSH2 0xD85 DUP8 DUP3 DUP9 ADD PUSH2 0xCEA JUMP JUMPDEST SWAP4 POP POP PUSH1 0x40 PUSH2 0xD96 DUP8 DUP3 DUP9 ADD PUSH2 0xA40 JUMP JUMPDEST SWAP3 POP POP PUSH1 0x60 PUSH2 0xDA7 DUP8 DUP3 DUP9 ADD PUSH2 0xA40 JUMP JUMPDEST SWAP2 POP POP SWAP3 SWAP6 SWAP2 SWAP5 POP SWAP3 POP JUMP JUMPDEST PUSH0 PUSH1 0xC0 DUP3 ADD SWAP1 POP DUP2 DUP2 SUB PUSH0 DUP4 ADD MSTORE PUSH2 0xDCB DUP2 DUP10 PUSH2 0xAF6 JUMP JUMPDEST SWAP1 POP DUP2 DUP2 SUB PUSH1 0x20 DUP4 ADD MSTORE PUSH2 0xDDF DUP2 DUP9 PUSH2 0xAF6 JUMP JUMPDEST SWAP1 POP PUSH2 0xDEE PUSH1 0x40 DUP4 ADD DUP8 PUSH2 0xB2E JUMP JUMPDEST PUSH2 0xDFB PUSH1 0x60 DUP4 ADD DUP7 PUSH2 0xB2E JUMP JUMPDEST PUSH2 0xE08 PUSH1 0x80 DUP4 ADD DUP6 PUSH2 0xB2E JUMP JUMPDEST PUSH2 0xE15 PUSH1 0xA0 DUP4 ADD DUP5 PUSH2 0xB48 JUMP JUMPDEST SWAP8 SWAP7 POP POP POP POP POP POP POP JUMP JUMPDEST PUSH32 0x4E487B7100000000000000000000000000000000000000000000000000000000 PUSH0 MSTORE PUSH1 0x22 PUSH1 0x4 MSTORE PUSH1 0x24 PUSH0 REVERT JUMPDEST PUSH0 PUSH1 0x2 DUP3 DIV SWAP1 POP PUSH1 0x1 DUP3 AND DUP1 PUSH2 0xE64 JUMPI PUSH1 0x7F DUP3 AND SWAP2 POP JUMPDEST PUSH1 0x20 DUP3 LT DUP2 SUB PUSH2 0xE77 JUMPI PUSH2 0xE76 PUSH2 0xE20 JUMP JUMPDEST JUMPDEST POP SWAP2 SWAP1 POP JUMP JUMPDEST PUSH32 0x4F6E6C79207468652070726F6A656374206F776E65722063616E2063616C6C20 PUSH0 DUP3 ADD MSTORE PUSH32 0x746869732E000000000000000000000000000000000000000000000000000000 PUSH1 0x20 DUP3 ADD MSTORE POP JUMP JUMPDEST PUSH0 PUSH2 0xED7 PUSH1 0x25 DUP4 PUSH2 0xAC8 JUMP JUMPDEST SWAP2 POP PUSH2 0xEE2 DUP3 PUSH2 0xE7D JUMP JUMPDEST PUSH1 0x40 DUP3 ADD SWAP1 POP SWAP2 SWAP1 POP JUMP JUMPDEST PUSH0 PUSH1 0x20 DUP3 ADD SWAP1 POP DUP2 DUP2 SUB PUSH0 DUP4 ADD MSTORE PUSH2 0xF04 DUP2 PUSH2 0xECB JUMP JUMPDEST SWAP1 POP SWAP2 SWAP1 POP JUMP JUMPDEST PUSH32 0x46756E64696E6720676F616C20686173206E6F74206265656E20726561636865 PUSH0 DUP3 ADD MSTORE PUSH32 0x642E000000000000000000000000000000000000000000000000000000000000 PUSH1 0x20 DUP3 ADD MSTORE POP JUMP JUMPDEST PUSH0 PUSH2 0xF65 PUSH1 0x22 DUP4 PUSH2 0xAC8 JUMP JUMPDEST SWAP2 POP PUSH2 0xF70 DUP3 PUSH2 0xF0B JUMP JUMPDEST PUSH1 0x40 DUP3 ADD SWAP1 POP SWAP2 SWAP1 POP JUMP JUMPDEST PUSH0 PUSH1 0x20 DUP3 ADD SWAP1 POP DUP2 DUP2 SUB PUSH0 DUP4 ADD MSTORE PUSH2 0xF92 DUP2 PUSH2 0xF59 JUMP JUMPDEST SWAP1 POP SWAP2 SWAP1 POP JUMP JUMPDEST PUSH32 0x46756E64696E67206973207374696C6C206F70656E2E00000000000000000000 PUSH0 DUP3 ADD MSTORE POP JUMP JUMPDEST PUSH0 PUSH2 0xFCD PUSH1 0x16 DUP4 PUSH2 0xAC8 JUMP JUMPDEST SWAP2 POP PUSH2 0xFD8 DUP3 PUSH2 0xF99 JUMP JUMPDEST PUSH1 0x20 DUP3 ADD SWAP1 POP SWAP2 SWAP1 POP JUMP JUMPDEST PUSH0 PUSH1 0x20 DUP3 ADD SWAP1 POP DUP2 DUP2 SUB PUSH0 DUP4 ADD MSTORE PUSH2 0xFFA DUP2 PUSH2 0xFC1 JUMP JUMPDEST SWAP1 POP SWAP2 SWAP1 POP JUMP JUMPDEST PUSH0 DUP2 SWAP1 POP SWAP2 SWAP1 POP JUMP JUMPDEST PUSH0 PUSH2 0x1024 PUSH2 0x101F PUSH2 0x101A DUP5 PUSH2 0xA7F JUMP JUMPDEST PUSH2 0x1001 JUMP JUMPDEST PUSH2 0xA7F JUMP JUMPDEST SWAP1 POP SWAP2 SWAP1 POP JUMP JUMPDEST PUSH0 PUSH2 0x1035 DUP3 PUSH2 0x100A JUMP JUMPDEST SWAP1 POP SWAP2 SWAP1 POP JUMP JUMPDEST PUSH0 PUSH2 0x1046 DUP3 PUSH2 0x102B JUMP JUMPDEST SWAP1 POP SWAP2 SWAP1 POP JUMP JUMPDEST PUSH2 0x1056 DUP2 PUSH2 0x103C JUMP JUMPDEST DUP3 MSTORE POP POP JUMP JUMPDEST PUSH0 PUSH1 0x60 DUP3 ADD SWAP1 POP PUSH2 0x106F PUSH0 DUP4 ADD DUP7 PUSH2 0xB2E JUMP JUMPDEST PUSH2 0x107C PUSH1 0x20 DUP4 ADD DUP6 PUSH2 0x104D JUMP JUMPDEST PUSH2 0x1089 PUSH1 0x40 DUP4 ADD DUP5 PUSH2 0xB2E JUMP JUMPDEST SWAP5 SWAP4 POP POP POP POP JUMP JUMPDEST PUSH32 0x46756E64696E6720676F616C206D757374206265206772656174657220746861 PUSH0 DUP3 ADD MSTORE PUSH32 0x6E207A65726F2E00000000000000000000000000000000000000000000000000 PUSH1 0x20 DUP3 ADD MSTORE POP JUMP JUMPDEST PUSH0 PUSH2 0x10EB PUSH1 0x27 DUP4 PUSH2 0xAC8 JUMP JUMPDEST SWAP2 POP PUSH2 0x10F6 DUP3 PUSH2 0x1091 JUMP JUMPDEST PUSH1 0x40 DUP3 ADD SWAP1 POP SWAP2 SWAP1 POP JUMP JUMPDEST PUSH0 PUSH1 0x20 DUP3 ADD SWAP1 POP DUP2 DUP2 SUB PUSH0 DUP4 ADD MSTORE PUSH2 0x1118 DUP2 PUSH2 0x10DF JUMP JUMPDEST SWAP1 POP SWAP2 SWAP1 POP JUMP JUMPDEST PUSH32 0x4475726174696F6E206D7573742062652067726561746572207468616E207A65 PUSH0 DUP3 ADD MSTORE PUSH32 0x726F2E0000000000000000000000000000000000000000000000000000000000 PUSH1 0x20 DUP3 ADD MSTORE POP JUMP JUMPDEST PUSH0 PUSH2 0x1179 PUSH1 0x23 DUP4 PUSH2 0xAC8 JUMP JUMPDEST SWAP2 POP PUSH2 0x1184 DUP3 PUSH2 0x111F JUMP JUMPDEST PUSH1 0x40 DUP3 ADD SWAP1 POP SWAP2 SWAP1 POP JUMP JUMPDEST PUSH0 PUSH1 0x20 DUP3 ADD SWAP1 POP DUP2 DUP2 SUB PUSH0 DUP4 ADD MSTORE PUSH2 0x11A6 DUP2 PUSH2 0x116D JUMP JUMPDEST SWAP1 POP SWAP2 SWAP1 POP JUMP JUMPDEST PUSH32 0x4E487B7100000000000000000000000000000000000000000000000000000000 PUSH0 MSTORE PUSH1 0x11 PUSH1 0x4 MSTORE PUSH1 0x24 PUSH0 REVERT JUMPDEST PUSH0 PUSH2 0x11E4 DUP3 PUSH2 0xA21 JUMP JUMPDEST SWAP2 POP PUSH32 0xFFFFFFFFFFFFFFFFFFFFFFFFFFFFFFFFFFFFFFFFFFFFFFFFFFFFFFFFFFFFFFFF DUP3 SUB PUSH2 0x1216 JUMPI PUSH2 0x1215 PUSH2 0x11AD JUMP JUMPDEST JUMPDEST PUSH1 0x1 DUP3 ADD SWAP1 POP SWAP2 SWAP1 POP JUMP JUMPDEST PUSH0 PUSH2 0x122B DUP3 PUSH2 0xA21 JUMP JUMPDEST SWAP2 POP PUSH2 0x1236 DUP4 PUSH2 0xA21 JUMP JUMPDEST SWAP3 POP DUP3 DUP3 ADD SWAP1 POP DUP1 DUP3 GT ISZERO PUSH2 0x124E JUMPI PUSH2 0x124D PUSH2 0x11AD JUMP JUMPDEST JUMPDEST SWAP3 SWAP2 POP POP JUMP JUMPDEST PUSH0 DUP2 SWAP1 POP DUP2 PUSH0 MSTORE PUSH1 0x20 PUSH0 KECCAK256 SWAP1 POP SWAP2 SWAP1 POP JUMP JUMPDEST PUSH0 PUSH1 0x20 PUSH1 0x1F DUP4 ADD DIV SWAP1 POP SWAP2 SWAP1 POP JUMP JUMPDEST PUSH0 DUP3 DUP3 SHL SWAP1 POP SWAP3 SWAP2 POP POP JUMP JUMPDEST PUSH0 PUSH1 0x8 DUP4 MUL PUSH2 0x12B0 PUSH32 0xFFFFFFFFFFFFFFFFFFFFFFFFFFFFFFFFFFFFFFFFFFFFFFFFFFFFFFFFFFFFFFFF DUP3 PUSH2 0x1275 JUMP JUMPDEST PUSH2 0x12BA DUP7 DUP4 PUSH2 0x1275 JUMP JUMPDEST SWAP6 POP DUP1 NOT DUP5 AND SWAP4 POP DUP1 DUP7 AND DUP5 OR SWAP3 POP POP POP SWAP4 SWAP3 POP POP POP JUMP JUMPDEST PUSH0 PUSH2 0x12EC PUSH2 0x12E7 PUSH2 0x12E2 DUP5 PUSH2 0xA21 JUMP JUMPDEST PUSH2 0x1001 JUMP JUMPDEST PUSH2 0xA21 JUMP JUMPDEST SWAP1 POP SWAP2 SWAP1 POP JUMP JUMPDEST PUSH0 DUP2 SWAP1 POP SWAP2 SWAP1 POP JUMP JUMPDEST PUSH2 0x1305 DUP4 PUSH2 0x12D2 JUMP JUMPDEST PUSH2 0x1319 PUSH2 0x1311 DUP3 PUSH2 0x12F3 JUMP JUMPDEST DUP5 DUP5 SLOAD PUSH2 0x1281 JUMP JUMPDEST DUP3 SSTORE POP POP POP POP JUMP JUMPDEST PUSH0 SWAP1 JUMP JUMPDEST PUSH2 0x132D PUSH2 0x1321 JUMP JUMPDEST PUSH2 0x1338 DUP2 DUP5 DUP5 PUSH2 0x12FC JUMP JUMPDEST POP POP POP JUMP JUMPDEST JUMPDEST DUP2 DUP2 LT ISZERO PUSH2 0x135B JUMPI PUSH2 0x1350 PUSH0 DUP3 PUSH2 0x1325 JUMP JUMPDEST PUSH1 0x1 DUP2 ADD SWAP1 POP PUSH2 0x133E JUMP JUMPDEST POP POP JUMP JUMPDEST PUSH1 0x1F DUP3 GT ISZERO PUSH2 0x13A0 JUMPI PUSH2 0x1371 DUP2 PUSH2 0x1254 JUMP JUMPDEST PUSH2 0x137A DUP5 PUSH2 0x1266 JUMP JUMPDEST DUP2 ADD PUSH1 0x20 DUP6 LT ISZERO PUSH2 0x1389 JUMPI DUP2 SWAP1 POP JUMPDEST PUSH2 0x139D PUSH2 0x1395 DUP6 PUSH2 0x1266 JUMP JUMPDEST DUP4 ADD DUP3 PUSH2 0x133D JUMP JUMPDEST POP POP JUMPDEST POP POP POP JUMP JUMPDEST PUSH0 DUP3 DUP3 SHR SWAP1 POP SWAP3 SWAP2 POP POP JUMP JUMPDEST PUSH0 PUSH2 0x13C0 PUSH0 NOT DUP5 PUSH1 0x8 MUL PUSH2 0x13A5 JUMP JUMPDEST NOT DUP1 DUP4 AND SWAP2 POP POP SWAP3 SWAP2 POP POP JUMP JUMPDEST PUSH0 PUSH2 0x13D8 DUP4 DUP4 PUSH2 0x13B1 JUMP JUMPDEST SWAP2 POP DUP3 PUSH1 0x2 MUL DUP3 OR SWAP1 POP SWAP3 SWAP2 POP POP JUMP JUMPDEST PUSH2 0x13F1 DUP3 PUSH2 0xABE JUMP JUMPDEST PUSH8 0xFFFFFFFFFFFFFFFF DUP2 GT ISZERO PUSH2 0x140A JUMPI PUSH2 0x1409 PUSH2 0xBF3 JUMP JUMPDEST JUMPDEST PUSH2 0x1414 DUP3 SLOAD PUSH2 0xE4D JUMP JUMPDEST PUSH2 0x141F DUP3 DUP3 DUP6 PUSH2 0x135F JUMP JUMPDEST PUSH0 PUSH1 0x20 SWAP1 POP PUSH1 0x1F DUP4 GT PUSH1 0x1 DUP2 EQ PUSH2 0x1450 JUMPI PUSH0 DUP5 ISZERO PUSH2 0x143E JUMPI DUP3 DUP8 ADD MLOAD SWAP1 POP JUMPDEST PUSH2 0x1448 DUP6 DUP3 PUSH2 0x13CD JUMP JUMPDEST DUP7 SSTORE POP PUSH2 0x14AF JUMP JUMPDEST PUSH1 0x1F NOT DUP5 AND PUSH2 0x145E DUP7 PUSH2 0x1254 JUMP JUMPDEST PUSH0 JUMPDEST DUP3 DUP2 LT ISZERO PUSH2 0x1485 JUMPI DUP5 DUP10 ADD MLOAD DUP3 SSTORE PUSH1 0x1 DUP3 ADD SWAP2 POP PUSH1 0x20 DUP6 ADD SWAP5 POP PUSH1 0x20 DUP2 ADD SWAP1 POP PUSH2 0x1460 JUMP JUMPDEST DUP7 DUP4 LT ISZERO PUSH2 0x14A2 JUMPI DUP5 DUP10 ADD MLOAD PUSH2 0x149E PUSH1 0x1F DUP10 AND DUP3 PUSH2 0x13B1 JUMP JUMPDEST DUP4 SSTORE POP JUMPDEST PUSH1 0x1 PUSH1 0x2 DUP9 MUL ADD DUP9 SSTORE POP POP POP JUMPDEST POP POP POP POP POP POP JUMP JUMPDEST PUSH0 PUSH2 0x14C1 DUP3 PUSH2 0xA7F JUMP JUMPDEST SWAP1 POP SWAP2 SWAP1 POP JUMP JUMPDEST PUSH2 0x14D1 DUP2 PUSH2 0x14B7 JUMP JUMPDEST DUP3 MSTORE POP POP JUMP JUMPDEST PUSH0 PUSH1 0xA0 DUP3 ADD SWAP1 POP PUSH2 0x14EA PUSH0 DUP4 ADD DUP9 PUSH2 0xB2E JUMP JUMPDEST PUSH2 0x14F7 PUSH1 0x20 DUP4 ADD DUP8 PUSH2 0x14C8 JUMP JUMPDEST DUP2 DUP2 SUB PUSH1 0x40 DUP4 ADD MSTORE PUSH2 0x1509 DUP2 DUP7 PUSH2 0xAF6 JUMP JUMPDEST SWAP1 POP PUSH2 0x1518 PUSH1 0x60 DUP4 ADD DUP6 PUSH2 0xB2E JUMP JUMPDEST PUSH2 0x1525 PUSH1 0x80 DUP4 ADD DUP5 PUSH2 0xB2E JUMP JUMPDEST SWAP7 SWAP6 POP POP POP POP POP POP JUMP JUMPDEST PUSH0 PUSH2 0x1539 DUP3 PUSH2 0xA21 JUMP JUMPDEST SWAP2 POP PUSH2 0x1544 DUP4 PUSH2 0xA21 JUMP JUMPDEST SWAP3 POP DUP3 DUP3 SUB SWAP1 POP DUP2 DUP2 GT ISZERO PUSH2 0x155C JUMPI PUSH2 0x155B PUSH2 0x11AD JUMP JUMPDEST JUMPDEST SWAP3 SWAP2 POP POP JUMP JUMPDEST PUSH32 0x5468652066756E64696E6720646561646C696E6520686173207061737365642E PUSH0 DUP3 ADD MSTORE POP JUMP JUMPDEST PUSH0 PUSH2 0x1596 PUSH1 0x20 DUP4 PUSH2 0xAC8 JUMP JUMPDEST SWAP2 POP PUSH2 0x15A1 DUP3 PUSH2 0x1562 JUMP JUMPDEST PUSH1 0x20 DUP3 ADD SWAP1 POP SWAP2 SWAP1 POP JUMP JUMPDEST PUSH0 PUSH1 0x20 DUP3 ADD SWAP1 POP DUP2 DUP2 SUB PUSH0 DUP4 ADD MSTORE PUSH2 0x15C3 DUP2 PUSH2 0x158A JUMP JUMPDEST SWAP1 POP SWAP2 SWAP1 POP JUMP JUMPDEST PUSH32 0x446F6E6174696F6E206D7573742062652067726561746572207468616E207A65 PUSH0 DUP3 ADD MSTORE PUSH32 0x726F2E0000000000000000000000000000000000000000000000000000000000 PUSH1 0x20 DUP3 ADD MSTORE POP JUMP JUMPDEST PUSH0 PUSH2 0x1624 PUSH1 0x23 DUP4 PUSH2 0xAC8 JUMP JUMPDEST SWAP2 POP PUSH2 0x162F DUP3 PUSH2 0x15CA JUMP JUMPDEST PUSH1 0x40 DUP3 ADD SWAP1 POP SWAP2 SWAP1 POP JUMP JUMPDEST PUSH0 PUSH1 0x20 DUP3 ADD SWAP1 POP DUP2 DUP2 SUB PUSH0 DUP4 ADD MSTORE PUSH2 0x1651 DUP2 PUSH2 0x1618 JUMP JUMPDEST SWAP1 POP SWAP2 SWAP1 POP JUMP JUMPDEST PUSH0 PUSH1 0x60 DUP3 ADD SWAP1 POP PUSH2 0x166B PUSH0 DUP4 ADD DUP7 PUSH2 0xB2E JUMP JUMPDEST PUSH2 0x1678 PUSH1 0x20 DUP4 ADD DUP6 PUSH2 0x14C8 JUMP JUMPDEST PUSH2 0x1685 PUSH1 0x40 DUP4 ADD DUP5 PUSH2 0xB2E JUMP JUMPDEST SWAP5 SWAP4 POP POP POP POP JUMP INVALID LOG2 PUSH5 0x6970667358 0x22 SLT KECCAK256 ISZERO 0xD8 PUSH30 0x35FA7B261CC9F694359B27896657A96DBDB9A636E39037D81A365B241C64 PUSH20 0x6F6C634300081A00330000000000000000000000 "
		},
		"gasEstimates": {
			"creation": {
				"codeDepositCost": "1165400",
				"executionCost": "1212",
				"totalCost": "1166612"
			},
			"external": {
				"createProject(string,string,uint256,uint256)": "infinite",
				"donate(uint256)": "infinite",
				"getProjectStatus(uint256)": "infinite",
				"projectCount()": "2447",
				"projects(uint256)": "infinite",
				"withdrawFunds(uint256)": "infinite"
			}
		},
		"methodIdentifiers": {
			"createProject(string,string,uint256,uint256)": "94ba9709",
			"donate(uint256)": "f14faf6f",
			"getProjectStatus(uint256)": "9675c009",
			"projectCount()": "36fbad26",
			"projects(uint256)": "107046bd",
			"withdrawFunds(uint256)": "155dd5ee"
		}
	},
	"abi": [
		{
			"anonymous": false,
			"inputs": [
				{
					"indexed": false,
					"internalType": "uint256",
					"name": "projectId",
					"type": "uint256"
				},
				{
					"indexed": false,
					"internalType": "address",
					"name": "donor",
					"type": "address"
				},
				{
					"indexed": false,
					"internalType": "uint256",
					"name": "amount",
					"type": "uint256"
				}
			],
			"name": "FundsDonated",
			"type": "event"
		},
		{
			"anonymous": false,
			"inputs": [
				{
					"indexed": false,
					"internalType": "uint256",
					"name": "projectId",
					"type": "uint256"
				},
				{
					"indexed": false,
					"internalType": "address",
					"name": "owner",
					"type": "address"
				},
				{
					"indexed": false,
					"internalType": "uint256",
					"name": "amount",
					"type": "uint256"
				}
			],
			"name": "FundsWithdrawn",
			"type": "event"
		},
		{
			"anonymous": false,
			"inputs": [
				{
					"indexed": false,
					"internalType": "uint256",
					"name": "projectId",
					"type": "uint256"
				},
				{
					"indexed": false,
					"internalType": "address",
					"name": "owner",
					"type": "address"
				},
				{
					"indexed": false,
					"internalType": "string",
					"name": "name",
					"type": "string"
				},
				{
					"indexed": false,
					"internalType": "uint256",
					"name": "fundingGoal",
					"type": "uint256"
				},
				{
					"indexed": false,
					"internalType": "uint256",
					"name": "deadline",
					"type": "uint256"
				}
			],
			"name": "ProjectCreated",
			"type": "event"
		},
		{
			"inputs": [
				{
					"internalType": "string",
					"name": "name",
					"type": "string"
				},
				{
					"internalType": "string",
					"name": "description",
					"type": "string"
				},
				{
					"internalType": "uint256",
					"name": "fundingGoal",
					"type": "uint256"
				},
				{
					"internalType": "uint256",
					"name": "duration",
					"type": "uint256"
				}
			],
			"name": "createProject",
			"outputs": [],
			"stateMutability": "nonpayable",
			"type": "function"
		},
		{
			"inputs": [
				{
					"internalType": "uint256",
					"name": "projectId",
					"type": "uint256"
				}
			],
			"name": "donate",
			"outputs": [],
			"stateMutability": "payable",
			"type": "function"
		},
		{
			"inputs": [
				{
					"internalType": "uint256",
					"name": "projectId",
					"type": "uint256"
				}
			],
			"name": "getProjectStatus",
			"outputs": [
				{
					"internalType": "string",
					"name": "name",
					"type": "string"
				},
				{
					"internalType": "string",
					"name": "description",
					"type": "string"
				},
				{
					"internalType": "uint256",
					"name": "fundingGoal",
					"type": "uint256"
				},
				{
					"internalType": "uint256",
					"name": "totalFunds",
					"type": "uint256"
				},
				{
					"internalType": "uint256",
					"name": "remainingTime",
					"type": "uint256"
				},
				{
					"internalType": "bool",
					"name": "goalReached",
					"type": "bool"
				}
			],
			"stateMutability": "view",
			"type": "function"
		},
		{
			"inputs": [],
			"name": "projectCount",
			"outputs": [
				{
					"internalType": "uint256",
					"name": "",
					"type": "uint256"
				}
			],
			"stateMutability": "view",
			"type": "function"
		},
		{
			"inputs": [
				{
					"internalType": "uint256",
					"name": "",
					"type": "uint256"
				}
			],
			"name": "projects",
			"outputs": [
				{
					"internalType": "address payable",
					"name": "owner",
					"type": "address"
				},
				{
					"internalType": "string",
					"name": "name",
					"type": "string"
				},
				{
					"internalType": "string",
					"name": "description",
					"type": "string"
				},
				{
					"internalType": "uint256",
					"name": "fundingGoal",
					"type": "uint256"
				},
				{
					"internalType": "uint256",
					"name": "totalFunds",
					"type": "uint256"
				},
				{
					"internalType": "uint256",
					"name": "deadline",
					"type": "uint256"
				},
				{
					"internalType": "bool",
					"name": "goalReached",
					"type": "bool"
				}
			],
			"stateMutability": "view",
			"type": "function"
		},
		{
			"inputs": [
				{
					"internalType": "uint256",
					"name": "projectId",
					"type": "uint256"
				}
			],
			"name": "withdrawFunds",
			"outputs": [],
			"stateMutability": "nonpayable",
			"type": "function"
		}
	]
}